{
  "_format": "hh-sol-artifact-1",
  "contractName": "WavePortal",
  "sourceName": "contracts/WavePortal.sol",
  "abi": [
    {
      "inputs": [],
      "stateMutability": "nonpayable",
      "type": "constructor"
    },
    {
      "inputs": [],
      "name": "getMaxWaverAddress",
      "outputs": [
        {
          "internalType": "address",
          "name": "",
          "type": "address"
        }
      ],
      "stateMutability": "view",
      "type": "function"
    },
    {
      "inputs": [],
      "name": "getTotalWaves",
      "outputs": [
        {
          "internalType": "uint256",
          "name": "",
          "type": "uint256"
        }
      ],
      "stateMutability": "view",
      "type": "function"
    },
    {
      "inputs": [],
      "name": "wave",
      "outputs": [],
      "stateMutability": "nonpayable",
      "type": "function"
    }
  ],
  "bytecode": "0x608060405234801561001057600080fd5b506100596040518060400160405280600f81526020017f596f20796f2c20676d207927616c6c000000000000000000000000000000000081525061005e60201b6102c91760201c565b6101e1565b6100fa81604051602401610072919061015f565b6040516020818303038152906040527f41304fac000000000000000000000000000000000000000000000000000000007bffffffffffffffffffffffffffffffffffffffffffffffffffffffff19166020820180517bffffffffffffffffffffffffffffffffffffffffffffffffffffffff83818316178352505050506100fd60201b60201c565b50565b60008151905060006a636f6e736f6c652e6c6f679050602083016000808483855afa5050505050565b600061013182610181565b61013b818561018c565b935061014b81856020860161019d565b610154816101d0565b840191505092915050565b600060208201905081810360008301526101798184610126565b905092915050565b600081519050919050565b600082825260208201905092915050565b60005b838110156101bb5780820151818401526020810190506101a0565b838111156101ca576000848401525b50505050565b6000601f19601f8301169050919050565b610827806101f06000396000f3fe608060405234801561001057600080fd5b50600436106100415760003560e01c80632cad7c34146100465780636fe15b44146100645780639a2cdc081461006e575b600080fd5b61004e61008c565b60405161005b91906105b9565b60405180910390f35b61006c6100fd565b005b61007661027e565b6040516100839190610694565b60405180910390f35b60006100d56040518060600160405280602181526020016107d160219139600260009054906101000a900473ffffffffffffffffffffffffffffffffffffffff16600354610362565b600260009054906101000a900473ffffffffffffffffffffffffffffffffffffffff16905090565b600160008082825461010f91906106cb565b925050819055506101556040518060400160405280600d81526020017f257320686173207761766564210000000000000000000000000000000000000081525033610401565b60018060003373ffffffffffffffffffffffffffffffffffffffff1673ffffffffffffffffffffffffffffffffffffffff16815260200190815260200160002060008282546101a491906106cb565b92505081905550600354600160003373ffffffffffffffffffffffffffffffffffffffff1673ffffffffffffffffffffffffffffffffffffffff16815260200190815260200160002054111561027c5733600260006101000a81548173ffffffffffffffffffffffffffffffffffffffff021916908373ffffffffffffffffffffffffffffffffffffffff160217905550600160003373ffffffffffffffffffffffffffffffffffffffff1673ffffffffffffffffffffffffffffffffffffffff168152602001908152602001600020546003819055505b565b60006102c16040518060400160405280601781526020017f5765206861766520256420746f74616c2077617665732100000000000000000081525060005461049d565b600054905090565b61035f816040516024016102dd91906105d4565b6040516020818303038152906040527f41304fac000000000000000000000000000000000000000000000000000000007bffffffffffffffffffffffffffffffffffffffffffffffffffffffff19166020820180517bffffffffffffffffffffffffffffffffffffffffffffffffffffffff8381831617835250505050610539565b50565b6103fc83838360405160240161037a93929190610626565b6040516020818303038152906040527f07c81217000000000000000000000000000000000000000000000000000000007bffffffffffffffffffffffffffffffffffffffffffffffffffffffff19166020820180517bffffffffffffffffffffffffffffffffffffffffffffffffffffffff8381831617835250505050610539565b505050565b61049982826040516024016104179291906105f6565b6040516020818303038152906040527f319af333000000000000000000000000000000000000000000000000000000007bffffffffffffffffffffffffffffffffffffffffffffffffffffffff19166020820180517bffffffffffffffffffffffffffffffffffffffffffffffffffffffff8381831617835250505050610539565b5050565b61053582826040516024016104b3929190610664565b6040516020818303038152906040527f9710a9d0000000000000000000000000000000000000000000000000000000007bffffffffffffffffffffffffffffffffffffffffffffffffffffffff19166020820180517bffffffffffffffffffffffffffffffffffffffffffffffffffffffff8381831617835250505050610539565b5050565b60008151905060006a636f6e736f6c652e6c6f679050602083016000808483855afa5050505050565b61056b81610721565b82525050565b600061057c826106af565b61058681856106ba565b935061059681856020860161075d565b61059f816107bf565b840191505092915050565b6105b381610753565b82525050565b60006020820190506105ce6000830184610562565b92915050565b600060208201905081810360008301526105ee8184610571565b905092915050565b600060408201905081810360008301526106108185610571565b905061061f6020830184610562565b9392505050565b600060608201905081810360008301526106408186610571565b905061064f6020830185610562565b61065c60408301846105aa565b949350505050565b6000604082019050818103600083015261067e8185610571565b905061068d60208301846105aa565b9392505050565b60006020820190506106a960008301846105aa565b92915050565b600081519050919050565b600082825260208201905092915050565b60006106d682610753565b91506106e183610753565b9250827fffffffffffffffffffffffffffffffffffffffffffffffffffffffffffffffff0382111561071657610715610790565b5b828201905092915050565b600061072c82610733565b9050919050565b600073ffffffffffffffffffffffffffffffffffffffff82169050919050565b6000819050919050565b60005b8381101561077b578082015181840152602081019050610760565b8381111561078a576000848401525b50505050565b7f4e487b7100000000000000000000000000000000000000000000000000000000600052601160045260246000fd5b6000601f19601f830116905091905056fe257320776176656420746865206d6f73742c206120746f74616c206f6620256421a2646970667358221220dc4640fd9b4d5640ff0fb76b8d463ec94c6f93df0f996cbb430652a555426c7d64736f6c63430008040033",
  "linkReferences": {},
  "deployedLinkReferences": {}
}