{
  "_format": "hh-sol-artifact-1",
  "contractName": "WavePortal",
  "sourceName": "contracts/WavePortal.sol",
  "abi": [
    {
      "inputs": [],
      "stateMutability": "nonpayable",
      "type": "constructor"
    },
    {
      "anonymous": false,
      "inputs": [
        {
          "indexed": true,
          "internalType": "address",
          "name": "from",
          "type": "address"
        },
        {
          "indexed": false,
          "internalType": "uint256",
          "name": "timestamp",
          "type": "uint256"
        },
        {
          "indexed": false,
          "internalType": "string",
          "name": "message",
          "type": "string"
        }
      ],
      "name": "NewWave",
      "type": "event"
    },
    {
      "inputs": [],
      "name": "getAllWaves",
      "outputs": [
        {
          "components": [
            {
              "internalType": "address",
              "name": "waver",
              "type": "address"
            },
            {
              "internalType": "string",
              "name": "message",
              "type": "string"
            },
            {
              "internalType": "uint256",
              "name": "timestamp",
              "type": "uint256"
            }
          ],
          "internalType": "struct WavePortal.Wave[]",
          "name": "",
          "type": "tuple[]"
        }
      ],
      "stateMutability": "view",
      "type": "function"
    },
    {
      "inputs": [],
      "name": "getMaxWaverAddress",
      "outputs": [
        {
          "internalType": "address",
          "name": "",
          "type": "address"
        }
      ],
      "stateMutability": "view",
      "type": "function"
    },
    {
      "inputs": [],
      "name": "getTotalWaves",
      "outputs": [
        {
          "internalType": "uint256",
          "name": "",
          "type": "uint256"
        }
      ],
      "stateMutability": "view",
      "type": "function"
    },
    {
      "inputs": [
        {
          "internalType": "string",
          "name": "_message",
          "type": "string"
        }
      ],
      "name": "wave",
      "outputs": [],
      "stateMutability": "nonpayable",
      "type": "function"
    }
  ],
  "bytecode": "0x60806040523480156200001157600080fd5b506200005d6040518060400160405280600f81526020017f596f20796f2c20676d207927616c6c00000000000000000000000000000000008152506200006360201b620005721760201c565b620001f7565b62000103816040516024016200007a919062000170565b6040516020818303038152906040527f41304fac000000000000000000000000000000000000000000000000000000007bffffffffffffffffffffffffffffffffffffffffffffffffffffffff19166020820180517bffffffffffffffffffffffffffffffffffffffffffffffffffffffff83818316178352505050506200010660201b60201c565b50565b60008151905060006a636f6e736f6c652e6c6f679050602083016000808483855afa5050505050565b60006200013c8262000194565b6200014881856200019f565b93506200015a818560208601620001b0565b6200016581620001e6565b840191505092915050565b600060208201905081810360008301526200018c81846200012f565b905092915050565b600081519050919050565b600082825260208201905092915050565b60005b83811015620001d0578082015181840152602081019050620001b3565b83811115620001e0576000848401525b50505050565b6000601f19601f8301169050919050565b610f0e80620002076000396000f3fe608060405234801561001057600080fd5b506004361061004c5760003560e01c80632cad7c3414610051578063449d46c01461006f5780639a2cdc081461008b578063bd43a908146100a9575b600080fd5b6100596100c7565b6040516100669190610ade565b60405180910390f35b61008960048036038101906100849190610916565b610138565b005b6100936103d6565b6040516100a09190610bdb565b60405180910390f35b6100b1610421565b6040516100be9190610af9565b60405180910390f35b6000610110604051806060016040528060218152602001610eb860219139600260009054906101000a900473ffffffffffffffffffffffffffffffffffffffff1660035461060b565b600260009054906101000a900473ffffffffffffffffffffffffffffffffffffffff16905090565b600160008082825461014a9190610ce2565b925050819055506101906040518060400160405280600d81526020017f2573206861732077617665642100000000000000000000000000000000000000815250336106aa565b60018060003373ffffffffffffffffffffffffffffffffffffffff1673ffffffffffffffffffffffffffffffffffffffff16815260200190815260200160002060008282546101df9190610ce2565b92505081905550600354600160003373ffffffffffffffffffffffffffffffffffffffff1673ffffffffffffffffffffffffffffffffffffffff1681526020019081526020016000205411156102b75733600260006101000a81548173ffffffffffffffffffffffffffffffffffffffff021916908373ffffffffffffffffffffffffffffffffffffffff160217905550600160003373ffffffffffffffffffffffffffffffffffffffff1673ffffffffffffffffffffffffffffffffffffffff168152602001908152602001600020546003819055505b600460405180606001604052803373ffffffffffffffffffffffffffffffffffffffff16815260200183815260200142815250908060018154018082558091505060019003906000526020600020906003020160009091909190915060008201518160000160006101000a81548173ffffffffffffffffffffffffffffffffffffffff021916908373ffffffffffffffffffffffffffffffffffffffff160217905550602082015181600101908051906020019061037692919061080b565b506040820151816002015550503373ffffffffffffffffffffffffffffffffffffffff167f5f7e16dc676677766a70e9c5628aa6c54ddb8b6e5188e2ae1e1f17f1ffbea71642836040516103cb929190610bf6565b60405180910390a250565b60006104196040518060400160405280601781526020017f5765206861766520256420746f74616c20776176657321000000000000000000815250600054610746565b600054905090565b60606004805480602002602001604051908101604052809291908181526020016000905b8282101561056957838290600052602060002090600302016040518060600160405290816000820160009054906101000a900473ffffffffffffffffffffffffffffffffffffffff1673ffffffffffffffffffffffffffffffffffffffff1673ffffffffffffffffffffffffffffffffffffffff1681526020016001820180546104ce90610db6565b80601f01602080910402602001604051908101604052809291908181526020018280546104fa90610db6565b80156105475780601f1061051c57610100808354040283529160200191610547565b820191906000526020600020905b81548152906001019060200180831161052a57829003601f168201915b5050505050815260200160028201548152505081526020019060010190610445565b50505050905090565b610608816040516024016105869190610b1b565b6040516020818303038152906040527f41304fac000000000000000000000000000000000000000000000000000000007bffffffffffffffffffffffffffffffffffffffffffffffffffffffff19166020820180517bffffffffffffffffffffffffffffffffffffffffffffffffffffffff83818316178352505050506107e2565b50565b6106a583838360405160240161062393929190610b6d565b6040516020818303038152906040527f07c81217000000000000000000000000000000000000000000000000000000007bffffffffffffffffffffffffffffffffffffffffffffffffffffffff19166020820180517bffffffffffffffffffffffffffffffffffffffffffffffffffffffff83818316178352505050506107e2565b505050565b61074282826040516024016106c0929190610b3d565b6040516020818303038152906040527f319af333000000000000000000000000000000000000000000000000000000007bffffffffffffffffffffffffffffffffffffffffffffffffffffffff19166020820180517bffffffffffffffffffffffffffffffffffffffffffffffffffffffff83818316178352505050506107e2565b5050565b6107de828260405160240161075c929190610bab565b6040516020818303038152906040527f9710a9d0000000000000000000000000000000000000000000000000000000007bffffffffffffffffffffffffffffffffffffffffffffffffffffffff19166020820180517bffffffffffffffffffffffffffffffffffffffffffffffffffffffff83818316178352505050506107e2565b5050565b60008151905060006a636f6e736f6c652e6c6f679050602083016000808483855afa5050505050565b82805461081790610db6565b90600052602060002090601f0160209004810192826108395760008555610880565b82601f1061085257805160ff1916838001178555610880565b82800160010185558215610880579182015b8281111561087f578251825591602001919060010190610864565b5b50905061088d9190610891565b5090565b5b808211156108aa576000816000905550600101610892565b5090565b60006108c16108bc84610c4b565b610c26565b9050828152602081018484840111156108d957600080fd5b6108e4848285610d74565b509392505050565b600082601f8301126108fd57600080fd5b813561090d8482602086016108ae565b91505092915050565b60006020828403121561092857600080fd5b600082013567ffffffffffffffff81111561094257600080fd5b61094e848285016108ec565b91505092915050565b60006109638383610a70565b905092915050565b61097481610d38565b82525050565b61098381610d38565b82525050565b600061099482610c8c565b61099e8185610caf565b9350836020820285016109b085610c7c565b8060005b858110156109ec57848403895281516109cd8582610957565b94506109d883610ca2565b925060208a019950506001810190506109b4565b50829750879550505050505092915050565b6000610a0982610c97565b610a138185610cc0565b9350610a23818560208601610d83565b610a2c81610ea6565b840191505092915050565b6000610a4282610c97565b610a4c8185610cd1565b9350610a5c818560208601610d83565b610a6581610ea6565b840191505092915050565b6000606083016000830151610a88600086018261096b565b5060208301518482036020860152610aa082826109fe565b9150506040830151610ab56040860182610ac0565b508091505092915050565b610ac981610d6a565b82525050565b610ad881610d6a565b82525050565b6000602082019050610af3600083018461097a565b92915050565b60006020820190508181036000830152610b138184610989565b905092915050565b60006020820190508181036000830152610b358184610a37565b905092915050565b60006040820190508181036000830152610b578185610a37565b9050610b66602083018461097a565b9392505050565b60006060820190508181036000830152610b878186610a37565b9050610b96602083018561097a565b610ba36040830184610acf565b949350505050565b60006040820190508181036000830152610bc58185610a37565b9050610bd46020830184610acf565b9392505050565b6000602082019050610bf06000830184610acf565b92915050565b6000604082019050610c0b6000830185610acf565b8181036020830152610c1d8184610a37565b90509392505050565b6000610c30610c41565b9050610c3c8282610de8565b919050565b6000604051905090565b600067ffffffffffffffff821115610c6657610c65610e77565b5b610c6f82610ea6565b9050602081019050919050565b6000819050602082019050919050565b600081519050919050565b600081519050919050565b6000602082019050919050565b600082825260208201905092915050565b600082825260208201905092915050565b600082825260208201905092915050565b6000610ced82610d6a565b9150610cf883610d6a565b9250827fffffffffffffffffffffffffffffffffffffffffffffffffffffffffffffffff03821115610d2d57610d2c610e19565b5b828201905092915050565b6000610d4382610d4a565b9050919050565b600073ffffffffffffffffffffffffffffffffffffffff82169050919050565b6000819050919050565b82818337600083830152505050565b60005b83811015610da1578082015181840152602081019050610d86565b83811115610db0576000848401525b50505050565b60006002820490506001821680610dce57607f821691505b60208210811415610de257610de1610e48565b5b50919050565b610df182610ea6565b810181811067ffffffffffffffff82111715610e1057610e0f610e77565b5b80604052505050565b7f4e487b7100000000000000000000000000000000000000000000000000000000600052601160045260246000fd5b7f4e487b7100000000000000000000000000000000000000000000000000000000600052602260045260246000fd5b7f4e487b7100000000000000000000000000000000000000000000000000000000600052604160045260246000fd5b6000601f19601f830116905091905056fe257320776176656420746865206d6f73742c206120746f74616c206f6620256421a264697066735822122043d65764e6fb3eb4a4e028705f6cb339a5150f6be559a3969e130c488c5816b264736f6c63430008040033",
  "linkReferences": {},
  "deployedLinkReferences": {}
}