{
  "_format": "hh-sol-artifact-1",
  "contractName": "WavePortal",
  "sourceName": "contracts/WavePortal.sol",
  "abi": [
    {
      "inputs": [],
      "stateMutability": "payable",
      "type": "constructor"
    },
    {
      "anonymous": false,
      "inputs": [
        {
          "indexed": true,
          "internalType": "address",
          "name": "from",
          "type": "address"
        },
        {
          "indexed": false,
          "internalType": "uint256",
          "name": "timestamp",
          "type": "uint256"
        },
        {
          "indexed": false,
          "internalType": "string",
          "name": "message",
          "type": "string"
        }
      ],
      "name": "NewWave",
      "type": "event"
    },
    {
      "inputs": [],
      "name": "getAllWaves",
      "outputs": [
        {
          "components": [
            {
              "internalType": "address",
              "name": "waver",
              "type": "address"
            },
            {
              "internalType": "string",
              "name": "message",
              "type": "string"
            },
            {
              "internalType": "uint256",
              "name": "timestamp",
              "type": "uint256"
            }
          ],
          "internalType": "struct WavePortal.Wave[]",
          "name": "",
          "type": "tuple[]"
        }
      ],
      "stateMutability": "view",
      "type": "function"
    },
    {
      "inputs": [],
      "name": "getMaxWaverAddress",
      "outputs": [
        {
          "internalType": "address",
          "name": "",
          "type": "address"
        }
      ],
      "stateMutability": "view",
      "type": "function"
    },
    {
      "inputs": [],
      "name": "getTotalWaves",
      "outputs": [
        {
          "internalType": "uint256",
          "name": "",
          "type": "uint256"
        }
      ],
      "stateMutability": "view",
      "type": "function"
    },
    {
      "inputs": [
        {
          "internalType": "address",
          "name": "",
          "type": "address"
        }
      ],
      "name": "lastWavedAt",
      "outputs": [
        {
          "internalType": "uint256",
          "name": "",
          "type": "uint256"
        }
      ],
      "stateMutability": "view",
      "type": "function"
    },
    {
      "inputs": [
        {
          "internalType": "string",
          "name": "_message",
          "type": "string"
        }
      ],
      "name": "wave",
      "outputs": [],
      "stateMutability": "nonpayable",
      "type": "function"
    }
  ],
  "bytecode": "0x60806040526200004f6040518060400160405280600f81526020017f596f20796f2c20676d207927616c6c00000000000000000000000000000000008152506200007760201b6200080a1760201c565b606444426200005f9190620001c4565b6200006b919062000261565b60068190555062000308565b62000117816040516024016200008e919062000184565b6040516020818303038152906040527f41304fac000000000000000000000000000000000000000000000000000000007bffffffffffffffffffffffffffffffffffffffffffffffffffffffff19166020820180517bffffffffffffffffffffffffffffffffffffffffffffffffffffffff83818316178352505050506200011a60201b60201c565b50565b60008151905060006a636f6e736f6c652e6c6f679050602083016000808483855afa5050505050565b60006200015082620001a8565b6200015c8185620001b3565b93506200016e8185602086016200022b565b6200017981620002f7565b840191505092915050565b60006020820190508181036000830152620001a0818462000143565b905092915050565b600081519050919050565b600082825260208201905092915050565b6000620001d18262000221565b9150620001de8362000221565b9250827fffffffffffffffffffffffffffffffffffffffffffffffffffffffffffffffff0382111562000216576200021562000299565b5b828201905092915050565b6000819050919050565b60005b838110156200024b5780820151818401526020810190506200022e565b838111156200025b576000848401525b50505050565b60006200026e8262000221565b91506200027b8362000221565b9250826200028e576200028d620002c8565b5b828206905092915050565b7f4e487b7100000000000000000000000000000000000000000000000000000000600052601160045260246000fd5b7f4e487b7100000000000000000000000000000000000000000000000000000000600052601260045260246000fd5b6000601f19601f8301169050919050565b61143180620003186000396000f3fe608060405234801561001057600080fd5b50600436106100575760003560e01c80632cad7c341461005c578063449d46c01461007a5780639a2cdc0814610096578063a42a4663146100b4578063bd43a908146100e4575b600080fd5b610064610102565b6040516100719190610e55565b60405180910390f35b610094600480360381019061008f9190610bec565b610173565b005b61009e610656565b6040516100ab9190610fb2565b60405180910390f35b6100ce60048036038101906100c99190610bc3565b6106a1565b6040516100db9190610fb2565b60405180910390f35b6100ec6106b9565b6040516100f99190610e70565b60405180910390f35b600061014b6040518060600160405280602181526020016113db60219139600360009054906101000a900473ffffffffffffffffffffffffffffffffffffffff166004546108a3565b600360009054906101000a900473ffffffffffffffffffffffffffffffffffffffff16905090565b42603c600560003373ffffffffffffffffffffffffffffffffffffffff1673ffffffffffffffffffffffffffffffffffffffff168152602001908152602001600020546101c091906110c4565b10610200576040517f08c379a00000000000000000000000000000000000000000000000000000000081526004016101f790610f92565b60405180910390fd5b42600560003373ffffffffffffffffffffffffffffffffffffffff1673ffffffffffffffffffffffffffffffffffffffff16815260200190815260200160002081905550600180600082825461025691906110c4565b9250508190555061029c6040518060400160405280600d81526020017f257320686173207761766564210000000000000000000000000000000000000081525033610942565b6001600260003373ffffffffffffffffffffffffffffffffffffffff1673ffffffffffffffffffffffffffffffffffffffff16815260200190815260200160002060008282546102ec91906110c4565b92505081905550600454600260003373ffffffffffffffffffffffffffffffffffffffff1673ffffffffffffffffffffffffffffffffffffffff1681526020019081526020016000205411156103c45733600360006101000a81548173ffffffffffffffffffffffffffffffffffffffff021916908373ffffffffffffffffffffffffffffffffffffffff160217905550600260003373ffffffffffffffffffffffffffffffffffffffff1673ffffffffffffffffffffffffffffffffffffffff168152602001908152602001600020546004819055505b600060405180606001604052803373ffffffffffffffffffffffffffffffffffffffff16815260200183815260200142815250908060018154018082558091505060019003906000526020600020906003020160009091909190915060008201518160000160006101000a81548173ffffffffffffffffffffffffffffffffffffffff021916908373ffffffffffffffffffffffffffffffffffffffff1602179055506020820151816001019080519060200190610483929190610aa3565b50604082015181600201555050606460065442446104a191906110c4565b6104ab91906110c4565b6104b591906111fb565b6006819055506104fc6040518060400160405280601681526020017f52616e646f6d20232067656e6572617465643a202564000000000000000000008152506006546109de565b603260065411610603576000655af3107a4000905047811115610554576040517f08c379a000000000000000000000000000000000000000000000000000000000815260040161054b90610f52565b60405180910390fd5b60003373ffffffffffffffffffffffffffffffffffffffff168260405161057a90610e40565b60006040518083038185875af1925050503d80600081146105b7576040519150601f19603f3d011682016040523d82523d6000602084013e6105bc565b606091505b5050905080610600576040517f08c379a00000000000000000000000000000000000000000000000000000000081526004016105f790610f72565b60405180910390fd5b50505b3373ffffffffffffffffffffffffffffffffffffffff167f5f7e16dc676677766a70e9c5628aa6c54ddb8b6e5188e2ae1e1f17f1ffbea716428360405161064b929190610fcd565b60405180910390a250565b60006106996040518060400160405280601781526020017f5765206861766520256420746f74616c207761766573210000000000000000008152506001546109de565b600154905090565b60056020528060005260406000206000915090505481565b60606000805480602002602001604051908101604052809291908181526020016000905b8282101561080157838290600052602060002090600302016040518060600160405290816000820160009054906101000a900473ffffffffffffffffffffffffffffffffffffffff1673ffffffffffffffffffffffffffffffffffffffff1673ffffffffffffffffffffffffffffffffffffffff16815260200160018201805461076690611198565b80601f016020809104026020016040519081016040528092919081815260200182805461079290611198565b80156107df5780601f106107b4576101008083540402835291602001916107df565b820191906000526020600020905b8154815290600101906020018083116107c257829003601f168201915b50505050508152602001600282015481525050815260200190600101906106dd565b50505050905090565b6108a08160405160240161081e9190610e92565b6040516020818303038152906040527f41304fac000000000000000000000000000000000000000000000000000000007bffffffffffffffffffffffffffffffffffffffffffffffffffffffff19166020820180517bffffffffffffffffffffffffffffffffffffffffffffffffffffffff8381831617835250505050610a7a565b50565b61093d8383836040516024016108bb93929190610ee4565b6040516020818303038152906040527f07c81217000000000000000000000000000000000000000000000000000000007bffffffffffffffffffffffffffffffffffffffffffffffffffffffff19166020820180517bffffffffffffffffffffffffffffffffffffffffffffffffffffffff8381831617835250505050610a7a565b505050565b6109da8282604051602401610958929190610eb4565b6040516020818303038152906040527f319af333000000000000000000000000000000000000000000000000000000007bffffffffffffffffffffffffffffffffffffffffffffffffffffffff19166020820180517bffffffffffffffffffffffffffffffffffffffffffffffffffffffff8381831617835250505050610a7a565b5050565b610a7682826040516024016109f4929190610f22565b6040516020818303038152906040527f9710a9d0000000000000000000000000000000000000000000000000000000007bffffffffffffffffffffffffffffffffffffffffffffffffffffffff19166020820180517bffffffffffffffffffffffffffffffffffffffffffffffffffffffff8381831617835250505050610a7a565b5050565b60008151905060006a636f6e736f6c652e6c6f679050602083016000808483855afa5050505050565b828054610aaf90611198565b90600052602060002090601f016020900481019282610ad15760008555610b18565b82601f10610aea57805160ff1916838001178555610b18565b82800160010185558215610b18579182015b82811115610b17578251825591602001919060010190610afc565b5b509050610b259190610b29565b5090565b5b80821115610b42576000816000905550600101610b2a565b5090565b6000610b59610b5484611022565b610ffd565b905082815260208101848484011115610b7157600080fd5b610b7c848285611156565b509392505050565b600081359050610b93816113c3565b92915050565b600082601f830112610baa57600080fd5b8135610bba848260208601610b46565b91505092915050565b600060208284031215610bd557600080fd5b6000610be384828501610b84565b91505092915050565b600060208284031215610bfe57600080fd5b600082013567ffffffffffffffff811115610c1857600080fd5b610c2484828501610b99565b91505092915050565b6000610c398383610dd2565b905092915050565b610c4a8161111a565b82525050565b610c598161111a565b82525050565b6000610c6a82611063565b610c748185611086565b935083602082028501610c8685611053565b8060005b85811015610cc25784840389528151610ca38582610c2d565b9450610cae83611079565b925060208a01995050600181019050610c8a565b50829750879550505050505092915050565b6000610cdf8261106e565b610ce981856110a2565b9350610cf9818560208601611165565b610d02816112e8565b840191505092915050565b6000610d188261106e565b610d2281856110b3565b9350610d32818560208601611165565b610d3b816112e8565b840191505092915050565b6000610d536034836110b3565b9150610d5e826112f9565b604082019050919050565b6000610d766027836110b3565b9150610d8182611348565b604082019050919050565b6000610d99600083611097565b9150610da482611397565b600082019050919050565b6000610dbc6008836110b3565b9150610dc78261139a565b602082019050919050565b6000606083016000830151610dea6000860182610c41565b5060208301518482036020860152610e028282610cd4565b9150506040830151610e176040860182610e22565b508091505092915050565b610e2b8161114c565b82525050565b610e3a8161114c565b82525050565b6000610e4b82610d8c565b9150819050919050565b6000602082019050610e6a6000830184610c50565b92915050565b60006020820190508181036000830152610e8a8184610c5f565b905092915050565b60006020820190508181036000830152610eac8184610d0d565b905092915050565b60006040820190508181036000830152610ece8185610d0d565b9050610edd6020830184610c50565b9392505050565b60006060820190508181036000830152610efe8186610d0d565b9050610f0d6020830185610c50565b610f1a6040830184610e31565b949350505050565b60006040820190508181036000830152610f3c8185610d0d565b9050610f4b6020830184610e31565b9392505050565b60006020820190508181036000830152610f6b81610d46565b9050919050565b60006020820190508181036000830152610f8b81610d69565b9050919050565b60006020820190508181036000830152610fab81610daf565b9050919050565b6000602082019050610fc76000830184610e31565b92915050565b6000604082019050610fe26000830185610e31565b8181036020830152610ff48184610d0d565b90509392505050565b6000611007611018565b905061101382826111ca565b919050565b6000604051905090565b600067ffffffffffffffff82111561103d5761103c6112b9565b5b611046826112e8565b9050602081019050919050565b6000819050602082019050919050565b600081519050919050565b600081519050919050565b6000602082019050919050565b600082825260208201905092915050565b600081905092915050565b600082825260208201905092915050565b600082825260208201905092915050565b60006110cf8261114c565b91506110da8361114c565b9250827fffffffffffffffffffffffffffffffffffffffffffffffffffffffffffffffff0382111561110f5761110e61122c565b5b828201905092915050565b60006111258261112c565b9050919050565b600073ffffffffffffffffffffffffffffffffffffffff82169050919050565b6000819050919050565b82818337600083830152505050565b60005b83811015611183578082015181840152602081019050611168565b83811115611192576000848401525b50505050565b600060028204905060018216806111b057607f821691505b602082108114156111c4576111c361128a565b5b50919050565b6111d3826112e8565b810181811067ffffffffffffffff821117156111f2576111f16112b9565b5b80604052505050565b60006112068261114c565b91506112118361114c565b9250826112215761122061125b565b5b828206905092915050565b7f4e487b7100000000000000000000000000000000000000000000000000000000600052601160045260246000fd5b7f4e487b7100000000000000000000000000000000000000000000000000000000600052601260045260246000fd5b7f4e487b7100000000000000000000000000000000000000000000000000000000600052602260045260246000fd5b7f4e487b7100000000000000000000000000000000000000000000000000000000600052604160045260246000fd5b6000601f19601f8301169050919050565b7f547279696e6720746f207769746864726177206d6f7265206d6f6e657920746860008201527f616e2074686520636f6e7472616374206861732e000000000000000000000000602082015250565b7f4661696c656420746f207769746864726177206d6f6e65792066726f6d20636f60008201527f6e74726163742e00000000000000000000000000000000000000000000000000602082015250565b50565b7f576169742031356d000000000000000000000000000000000000000000000000600082015250565b6113cc8161111a565b81146113d757600080fd5b5056fe257320776176656420746865206d6f73742c206120746f74616c206f6620256421a2646970667358221220e1a5da252f44f2e7378997d529d3a37459e5041a009a4a23d852f68c05175fe464736f6c63430008040033",
  "linkReferences": {},
  "deployedLinkReferences": {}
}